:020000040800F2
:10000000800F0020F5010008D91A0008451A0008E1
:10001000D51A0008B102000895370008000000005A
:10002000000000000000000000000000E11A0008CD
:10003000B502000800000000DD1A0008E51A0008FB
:100040000F0200080F0200080F0200080F0200084C
:100050000F0200080F0200080F0200080F0200083C
:100060000F0200080F0200080F0200080F0200082C
:100070000F0200080F0200080F0200080F0200081C
:100080000F0200080F0200080F0200080F0200080C
:100090001D3600080F0200080F0200080F020008BA
:1000A0000F0200080F0200080F0200080F020008EC
:1000B0000F0200080F0200080F0200080F020008DC
:1000C0000F0200080F0200080F0200080F020008CC
:1000D0000F0200080F0200080F0200080F020008BC
:1000E0000F0200080F0200080F02000800F002F8DB
:1000F00000F070F814A696E8000CB244B344DA4558
:1001000001D100F067F8BAE80F000FA696E83000BA
:10011000A5EB040504EB0607AAEB0704A7F101070A
:100120004FEA15154FEA3414A4F10104AC4201D38F
:1001300000F050F813F0010F18BFFB1A43F0010351
:1001400000F001F8DBE71847083700002837000007
:100150000A444FF0000C10F8013B13F0070408BFED
:1001600010F8014B1D1108BF10F8015B641E05D08B
:1001700010F8016B641E01F8016BF9D113F0080F40
:100180001EBF10F8014BAD1C0C1B09D16D1E58BFD2
:1001900001F801CBFAD505E014F8016B01F8016B09
:1001A0006D1EF9D59142D6D370470000704700000C
:1001B0000023002400250026103A28BF78C1FBD870
:1001C000520728BF30C148BF0B6070471FB51FBD25
:1001D00010B510BD00F031F81146FFF7F7FF03F03E
:1001E000DBFA00F04FF803B4FFF7F2FF03BC00F0B6
:1001F00057F800000948804709480047FEE7FEE736
:10020000FEE7FEE7FEE7FEE7FEE7FEE7FEE7FEE7C6
:1002100004480549054A064B70470000E91A0008E2
:10022000ED00000880090020800F0020800B0020D6
:10023000800B0020704770477047754600F02CF81F
:10024000AE4605006946534620F00700854618B0C3
:1002500020B5FFF7DDFFBDE820404FF000064FF06E
:1002600000074FF000084FF0000BAC46ACE8C009A7
:10027000ACE8C009ACE8C009ACE8C00921F007014E
:100280008D46704710B50446AFF300802046BDE8A8
:100290001040FFF7A8BF0000004870476801002029
:1002A00001491820ABBEFEE726000200704700009F
:1002B000FEE7000070470000EFF3108072B600BF49
:1002C000FEE70000B0B5044600F010F8054640F225
:1002D0000000C2F200000078611C18BF044400BF97
:1002E00000F004F8401BA042FAD3B0BD40F67C10E9
:1002F000C2F200000068704740F2000040F67C1136
:10030000C2F20000C2F2000100780A6810440860DE
:100310007047000080B542F20000C4F2020001689C
:1003200041F010010160032000F08CF80F2000F074
:1003300005F800F027F8002080BD000070B540F2FD
:100340000006C2F2000640F27C013278C2F20001DF
:100350004FF47A730968B3FBF2F20446B1FBF2F191
:10036000084601F059FB0F2C4FF0010508D838B9A9
:100370004FF0FF3021460022002500F037F874606E
:10038000284670BD82B041F21800C4F20200016834
:10039000022241F001010160016801F001010191B7
:1003A0000199416841F080514160406800F08050FF
:1003B000009000980420C4F20100016862F31A6101
:1003C000016002B070470000002848BF704700F08D
:1003D0001F01012202FA01F11C2202EAD0004EF2B2
:1003E0000012CEF2000281507047000010B54EF6A8
:1003F0000C5CCEF2000CDCF80030C3F3022E8EF061
:100400000704042C28BF0424BEF103034FF0FF3E71
:100410000EFA04F438BF0023A14399400EFA03F307
:100420009A43114300F00F0200F160430901043ABE
:1004300003F564436244002848BF02F10C031970BD
:1004400010BD00004EF60C51CEF200010A684FF6C6
:10045000FF031A4060F30A2242F0806040F0FD7012
:100460000860704780B501F0070C0CEB8C0C00EBBA
:10047000CC0C0CF1100C01EB810E090600EBCE0048
:1004800058BF00F5A87C5AB1ACF808301B0C01210C
:100490000A202CF8003000208CF80C1080BD00BF22
:1004A000002106202CF8003000208CF80C1080BDB4
:1004B0007047000001EB8102D0F8D43200EBC2009B
:1004C000426A184601F006BE01EB8102D0F8D43230
:1004D00000EBC200D0F86421184601F061BE0000B4
:1004E00010B501F0070E0A464FFA81FC0EEB8E01A3
:1004F00000EBC10303F5A871BCF1000F48BF03F185
:10050000100190F89032D209012B4A7081F800E076
:1005100004BF022010BD0268012380F89032044617
:10052000104602F05DFB002084F8900210BD000030
:10053000027901F00F03934284BF0120704710B588
:1005400001F0070303EB830200EBC2024FFA81FCC8
:100550008E4602F5A871BCF1000F48BF02F11001F0
:100560004FEADE124A7090F890224FF0000C012AF8
:1005700081F802C00B7004BF022010BD0268012385
:1005800080F890320446104602F0CAFB002084F83E
:10059000900210BDB0B501F007048C464FFA81FE01
:1005A00004EB840100EBC10505F5A871BEF1000F55
:1005B00048BF05F110014FEADC154D700C700A615F
:1005C000022BCB7004BF00220A7190F89022012AFE
:1005D00004BF0220B0BD0268012380F890320446B7
:1005E000104602F0BDF9002084F89002B0BD000072
:1005F00010B501F0070C0CEB8C0100EBC10E00688C
:100600000EF5A8710024CEF86421CEF86831CEF83A
:100610006C418EF851418EF850C102F0D9FB002098
:1006200010BD0000B0B5027901F0070494424FF00C
:1006300001022BD801EB810300EBC3034FFA81FCCD
:1006400003F5A87304EB8405C90900EBC505BCF1EB
:10065000000F48BF05F11003597090F890129A707E
:1006600001291C7004BF0220B0BD0168054680F856
:1006700090220846194602F091FB24B9286805F536
:10068000267102F04BFB002285F890221046B0BD87
:1006900080B501F0070C0CEB8C0100EBC10101F8F7
:1006A00010CF00684FF0010C01F1140781F824C04D
:1006B0004FF0000E87E80C400B6281F801C002F099
:1006C00087FB002080BD00002DE9F04F83B0044679
:1006D000006802F0A9FF01041ED4410500F1E48383
:1006E000410400F1F383810400F10884C10400F1A6
:1006F0000F84010500F12684810500F17584C00591
:1007000040F1E0832068B0F8441021F48071A0F833
:10071000441003B0BDE8F08F2068B0F94410B1F187
:10072000FF3F00F3CF8304F5A871019104F110019C
:1007300048F2C005029104F5267140F60F78009149
:1007400023E000BFB0F8501094F8502100EB4101B5
:1007500001EB0211B1F80C34B4F8562100996FF393
:100760009F23C4F86C3102F063FF2068018801EA1E
:10077000080180310180204600F0B8FD2068B0F902
:100780004410B1F1FF3F00F39D83B0F8442012F014
:100790000F090DD030F929104FEA490BB1F1FF3F95
:1007A0001FFA81FA30DD5FEA0A60E7D548E100BF51
:1007B0000188D20662D401EA080101F500410180F6
:1007C000B0F85010227C00EB410000EB0210B0F8B2
:1007D0000404616A6FF39F20E0620844606220466F
:1007E0000021FFF767FE607B0028C7D0A06A0028C1
:1007F000C4D1607B216840F08000C0B2A1F84C00F9
:1008000000206073BAE700BF30F81B1001EA08014E
:10081000803120F81B10019A09EB890102EBC10617
:10082000317B002900F07E80F178022940F08A8037
:10083000B0F850303178B26900EB43035FEA4A47C1
:1008400003EB011300F19680B3F80C7400236FF3EF
:100850009F27D21B38BF1A46B26140F2A1805FEADF
:100860004A6200F1AD8030F8212002EA08022A43F2
:1008700020F82120002F40F0A480C3E00A053FF5B6
:1008800061AF09B2B1F1FF3F3FF778AF018801EAEC
:10089000080180310180B0F8501094F8502100EB2D
:1008A000410101EB0211B1F80C346FF39F23C4F83E
:1008B0006C3193B1D4F8641179B1B4F8562102F0D7
:1008C000B7FED4F86401D4F86C110844C4F864018C
:1008D00020460021FFF7F8FD206801880A053FF552
:1008E0004DAF01F44051B1F5405F3FF447AFB0F870
:1008F000501000F20C42535A6FF39F235352D4F816
:1009000060313F2BC0F0E881DE068E5A4FEA531764
:100910004FF0FF3508BF05EB531748F2C00546EA14
:10092000872362E2B0F85010327800EB410101EB0E
:100930000211B1F80C746FF39F27002F62D0716918
:10094000F2885AE0317830F8212002EA08022A437E
:1009500020F8212030F82120B0F8503000EB0111B0
:10096000520401EB430115D4B1F80C746FF39F27C7
:100970003FBB47E0B3F8047400236FF39F27D21BFB
:1009800038BF1A46B2611FD95FEA4A622BD497BBBF
:1009900038E000BFB1F804746FF39F275FBB31E00C
:1009A00030F8212043F60F731A404CF28003A3F570
:1009B00000535A4020F821205FEA4A627FF553AF86
:1009C00007B37169728918E030F8212043F60F737C
:1009D0001A404CF28003A3F500535A4020F821201E
:1009E0005FEA4A62D3D530F8212002EA08022A439E
:1009F00020F8212037B1716932893B4602F018FE98
:100A000001E000BF0027F169D6E905023944384406
:100A1000F161706112B13069B84209D9317820466C
:100A2000FFF752FD5FEA0A607FF5A8AE08E000BF5D
:100A30002068314602F0CCF95FEA0A607FF59EAE8D
:100A4000206809EB890130F81B20029B03EBC106EB
:100A500002EA080101F5004120F81B10F178012994
:100A600022D1317B00294FF00001B16100F02F81CC
:100A70005FEA4A6100F180807178012900F01481F9
:100A8000002940F02481B0F850103278084400EB7F
:100A90000210B0F80C146FF39F21A0F80C14B0F8FA
:100AA0000C1441F4004106E15FEACA511ED4B0F8CB
:100AB0005020317800EB420202EB0112B2F804241C
:100AC000B3696FF39F229B1A4FF0000738BF3B4674
:100AD000B36140F2FD807169F36911447161991845
:100AE000F161314602F074F948E600BFB0F85030C9
:100AF0003178B5695FEA4A6200EB011754D407F216
:100B00000C4E3EF8133000226FF39F23ED1A38BFCE
:100B10001546B5617CD95FEA4A4708D430F82170A0
:100B20004CF2800507EA08072F4320F8217096F859
:100B3000241048F2C005012940F0A981D6E904C17A
:100B4000D6E9075719441D4467457161F56180F086
:100B5000FB80002F00F06081BC46326286F82420C2
:100B6000737848F2C005012B40F0F780B0F85030A0
:100B70002EF803C07CE100BF7178012900F09E804F
:100B8000002940F0A480B0F850103278084400EBFF
:100B90000210B0F804146FF39F21A0F80414B0F809
:100BA000041441F4004190E007F2044939F813308D
:100BB00000226FF39F23ED1A38BF1546B5614DD95A
:100BC0005FEA4A4708D530F821704CF2800507EA01
:100BD00008072F4320F8217096F8241048F2C0052A
:100BE000012940F05481D6E90471D6E9075E194421
:100BF0001D44BE457161F56180F0CE804FF0000C60
:100C0000BEF1000F86F824C040F0C9809E46C8E0BF
:100C1000737848F2C005012B6AD0002B71D1B0F86F
:100C200050303B44B3F804746FF39F27A3F8047467
:100C3000B3F8047447F40047A3F80474B0F8500004
:100C40003EF800306FF39F232EF800303EF800305E
:100C500043F400432EF8003053E000BF737848F2AD
:100C6000C005012B54D0002B5BD1B0F8503039F8BF
:100C700003506FF39F2529F8035039F8035045F4CA
:100C8000004529F80350B0F8500048F2C005384438
:100C9000B0F80C246FF39F22A0F80C24B0F80C24B9
:100CA00042F400423BE000BFB0F8501032780844F4
:100CB00000EB02100021A0F80C1408E0B0F850106E
:100CC0003278084400EB02100021A0F804143178B7
:100CD0002046FFF7EFFB51E5002B00F0858003F085
:100CE0000107565A07EB530346EA832382E000BF0D
:100CF000B0F850303B44A3F80424B0F850002EF86C
:100D000000202046FFF7D6FB5FEA4A4010D5BEE040
:100D1000B0F8503029F80320B0F850003844A0F85B
:100D20000C242046FFF7C6FB5FEA4A4040F1AF8043
:100D3000206831784CF2800330F8212002EA080262
:100D40001A4320F82120A2E0A7EB0C03336273784A
:100D500048F2C005012B3FF409AF002B40F088801A
:100D6000B0F85030BCF13F0F3EF803706FF39F278F
:100D70002EF803705AD35FEACC654FEA5C173EF851
:100D800003504FF0FF3208BF02EB5C1745EA87279C
:100D900048F2C00568E000BFAEEB070CBE46C6F8DF
:100DA00020C0737848F2C005012B2FD0002B69D1E9
:100DB000B0F85030BEF13F0F39F803706FF39F2742
:100DC00029F8037040D35FEACE654FEA5E1739F821
:100DD00003504FF0FF3208BF02EB5E1745EA87274A
:100DE00048F2C0054AE000BF535A48F20007CFF668
:100DF000FF773B438B52018843F60F7211404CF250
:100E00008002A2F5805251400180B7E4B0F8503022
:100E100029F803E036E000BF002786F824709C46DE
:100E2000737848F2C005012B97D19FE6BCF1000F03
:100E300018D00CF001073EF8035007EB5C0745EAB9
:100E4000872748F2C00511E0BEF1000F14D00EF064
:100E5000010739F8035007EB5E0745EA872748F298
:100E6000C0050DE03EF8037047F400472EF803700C
:100E700072891FFA8CF308E039F8037047F40047D1
:100E800029F8037032891FFA8EF302F035FC2068CE
:100E9000317840F63F7330F821201A40A5F1100355
:100EA0005A4020F8212069E42068B0F8441021F469
:100EB0008061A0F84410204600F0EAF994F890020E
:100EC00001280DD103B0BDE8F08F00BF2068B0F855
:100ED000441021F48041A0F8441003B0BDE8F08F25
:100EE0000120002584F8900265732068002102F03B
:100EF000FBFB84F8905203B0BDE8F08F2068B0F897
:100F0000441021F40051A0F8441003B0BDE8F08F64
:100F10002068B0F8401021F00401A0F84010B0F8AB
:100F2000401021F00801A0F84010204600F0C2F95E
:100F30002068B0F8441021F48051A0F8441003B0A8
:100F4000BDE8F08F2168B1F800C0B1F804E0B1F855
:100F500008808F890E8A8D8A088B8A8BB1F8403081
:100F600043F00103A1F84030B1F8403023F0010311
:100F7000A1F84030B1F844305B050CD4B1F84430EE
:100F80005B055CBFB1F844305FEA435303D4B1F86A
:100F900044305B05EED5B1F8443023F48063A1F80A
:100FA0004430A1F800C0A1F804E0A1F808808F81C6
:100FB0000E828D8208838A83B1F8400040F00800D9
:100FC000A1F84000B1F8440020F40060A1F844000A
:100FD000B1F8400040F004022046A1F8402003B0E0
:100FE000BDE8F04F00F0A4B92168B1F8440020F446
:100FF00000722046A1F8442003B0BDE8F04F00F095
:101000005DB90000002804BF01207047F0B581B031
:10101000044690F8910228B9002084F890022046F6
:1010200000F014F9032084F8910220680021617116
:1010300001F06AFE94E80700237B01F0CFFD002851
:1010400040F0F2802068002102F04CFB002840F0C4
:10105000EB8094F804E0BEF1000F00F0DF800EF0AA
:10106000030CBEF1040F4FF0000237D30EF0FC0367
:10107000A4F1A00003210125CE1E80F8B0608E1ED1
:1010800080F8D8604E1E80F8006180F828110E1D8F
:10109000013180F8B15080F8B320C0E93022C0F8A7
:1010A000C82080F8D95080F8DB20C0E93A22C0F887
:1010B000F02080F8015180F80321C0E94422C0F8F3
:1010C000182180F8295180F82B21C0E94E22C0F860
:1010D0004021A03099423146CED1F21EBCF1000F22
:1010E0002ED004F1100002EB820100EBC1050123B8
:1010F00000F831200021BCF1010F6B70E970C5E9E7
:101100000411A9611CD0551C05EB850600EBC60730
:10111000BCF1020F7B7000F83650F970C7E904117A
:10112000B9610DD0911C01EB810200EBC2030125D6
:1011300000F8321000205D70D870C3E90400986197
:10114000BEF1000F6AD0BEF1040F4FF0000235D39C
:101150000EF0FC0003212346CF1E83F850718F1E32
:1011600083F878714F1E83F8C8110D1D013183F883
:10117000512183F85321C3E95822C3F8682183F829
:10118000792183F87B21C3E96222C3F8902183F897
:10119000A12183F8A07183F8A321C3E96C22C3F8CD
:1011A000B82183F8C92183F8CB21C3E97622C3F89B
:1011B000E021A03381422946CED1EA1EBCF1000FC6
:1011C0002CD004F5A87002EB820300EBC3070021CA
:1011D000BCF1010F797000F83320F970C7E90411F0
:1011E000B9611BD0531C03EB830700EBC706BCF1AE
:1011F000020F717000F83730F170C6E90411B16167
:101200000CD0911C01EB810200EBC20300275F7040
:1012100000F83210DF70C3E904779F6194E807009B
:10122000237B01F053FD28B1022084F891020120B4
:1012300001B0F0BD00206073012084F891022068A5
:1012400001F042FD002001B0F0BD0000006845F64D
:101250000041C4F20001884218BF704780B582B0D7
:1012600041F21C00C4F202000168002241F40001B6
:1012700001600068002100F4000001900198142032
:10128000FFF7B4F8142002B0BDE88040FFF79CB827
:1012900010B504468079022818BFFFF70DF8D4F87E
:1012A000D402012101F06CF8D4F8D402BDE810405A
:1012B00001F024B8D0F8D40201F04AB8D0F8D40232
:1012C00001F050B890F89022012A04BF0220704724
:1012D00010B5012280F8902241730268044610463E
:1012E00002F002FA002084F8900210BDD0F8D42257
:1012F00000F52671104601F059B8000090F89012E0
:10130000012904BF0220704710B50168012280F84E
:1013100090220446084602F077F920460121FFF7A3
:10132000C7F8206801F0CEFC002084F8900210BDC0
:1013300010B50446D0F8D40201F08AF8A07A00284B
:1013400008BF10BD4EF61050CEF20000016841F00B
:101350000601016010BD00002DE9F04182B0044695
:10136000007841F21C06C007C4F202064AD0306879
:101370005FEAC00808D4306840F0805030603068C0
:1013800000F080500190019847F20007C4F2000776
:101390003868C00512D4386840F480703860FEF7B1
:1013A000A5FF05463868C00508D4FEF79FFF401B1F
:1013B0006428F7D9032002B0BDE8F081706810F40A
:1013C000407012D0616801F4407188420DD070689D
:1013D00040F24042C4F24222012320F440711360E3
:1013E0000023C0071360716026D17068616820F423
:1013F00040700843B8F1000F706003D4306820F0EB
:10140000805030602068810707D556F8181CA26804
:1014100021F44041114346F8181CC00607D556F880
:10142000180CE16820F48000084346F8180C0020EE
:1014300002B0BDE8F08100BFFEF758FF054641F25B
:10144000883700BF70688007CFD4FEF74FFF401B7E
:10145000B8424FF00300F5D9EAE70000002804BFC6
:10146000012070472DE9F04381B042F20008C4F238
:1014700002080446D8F800000D4600F00700884234
:101480000CD2D8F8000020F007002843C8F800006C
:10149000D8F8000000F00700A8426CD1206841F2A3
:1014A00004098107C4F2020917D5410705D5D9F807
:1014B000001041F4E061C9F80010010705D5D9F822
:1014C000001041F46051C9F80010D9F80010A2686A
:1014D00021F0F0011143C9F80010C00742D1D8F83B
:1014E000000000F00700A8420CD9D8F8000020F056
:1014F00007002843C8F80000D8F8000000F00700F3
:10150000A84238D12068410707D5D9F80010E26811
:1015100021F4E0611143C9F80010000708D5D9F89B
:101520000000216920F4605040EAC100C9F80000C1
:10153000D9F8002002F00C00082841F20020C0F287
:101540007A004DD143F63E03C2F38341C0F6000357
:10155000595CD20338D440F60010C0F23D00484335
:101560003EE000BF606859F8041C022808D001283A
:1015700026D1890306D4012001B0BDE8F08300BF65
:101580008901F8D5D9F8001021F003010843C9F802
:101590000000FEF7ABFE064641F28837D9F800009E
:1015A000616800F00C00B0EB810F98D0FEF79EFE52
:1015B000801BB842F2D9032001B0BDE8F08300BF20
:1015C0008907D8D5DEE700BFD9F8002043F63C03F1
:1015D000C2F34042C0F600039A5C4843B0FBF2F00D
:1015E000D9F8001043F62C02C1F30311C0F6000233
:1015F000515C40F27C0220FA01F140F20400C2F298
:1016000000000068C2F200021160FEF797FE0020A1
:1016100001B0BDE8F0830000002804BF012070473E
:101620002DE9F04182B00446007841F20006C0077F
:10163000C4F202060CD0706800F00C00042840F0E0
:1016400081803068800303D56068002800F04681FF
:10165000207880071BD5706810F00C0F09D07068D7
:1016600000F00C00082840F087807068C00300F18B
:1016700083803068800703D52069012840F02E81DF
:101680003068616920F0F80040EAC10030602078DD
:10169000000713D4207840072CD4E569002D00F012
:1016A0001881706800F00C00082840F0A780012D18
:1016B00040F00481012002B0BDE8F081A06900285B
:1016C00000F084800020C4F242200121C0F8801480
:1016D000FEF70CFE054600BF706A800700F1B2807D
:1016E000FEF704FE401B0228F6D9032002B0BDE835
:1016F000F08100BFF0695FEAC00808D4F06940F0EB
:101700008050F061F06900F080500090009847F23E
:101710000007C4F200073868C00549D4386840F4AF
:1017200080703860FEF7E2FD054600BF3868C005EE
:101730003ED4FEF7DBFD401B6428F7D9032002B03E
:10174000BDE8F081706800F00C00082803D17068D3
:10175000C0033FF576AF61683068002900F00C8166
:10176000B1F5A02F00F00081B1F5803F40F01A8163
:1017700040F480301CE100BF2069002840F20000E6
:10178000C4F2422000F0888001210160FEF7AEFD26
:10179000054600BF306880073FF572AFFEF7A6FD33
:1017A000401B0228F6D9032002B0BDE8F08100BF3B
:1017B000E168306A002900F09D80052900F09280E0
:1017C000012940F0AF8040F00100B1E00020C4F2F8
:1017D00042200021C0F88014FEF788FD054600BFB6
:1017E000706A80077FF556AFFEF780FD401B022828
:1017F000F6D9032002B0BDE8F08100BF0027C4F293
:10180000422700203866FEF771FD022D05460DD1F6
:101810003068800140F1DE80FEF768FD401B022841
:101820004FF00300F4D902B0BDE8F08130688001C8
:101830004FD5FEF75BFD401B02284FF00300F5D9A2
:10184000F1E700BF40F27C00C2F20000006844F6FD
:10185000D351C1F26201A0FB0101480A019000BF0F
:1018600000BF0198411E002801913FF413AF00BF53
:101870000198411E002801913FF40CAF00BF019870
:10188000411E002801913FF405AF00BF0198411EA1
:1018900000280191E4D1FDE600210160FEF726FD5C
:1018A000054600BF306880077FF5F1AEFEF71EFDEC
:1018B000401B02284FF00300F4D9B4E77068216A96
:1018C00000F480328A4209D1616A00F470108842C3
:1018D00004D1002002B0BDE8F08100BF012002B0B9
:1018E000BDE8F08140F004003062306A40F0010051
:1018F0001EE000BF20F001003062306A20F00400DA
:101900003062FEF7F3FC054641F28837306A800703
:1019100020D5FEF7EBFC401BB8424FF00300F5D991
:1019200081E700BF20F001003062306A20F004003F
:101930003062FEF7DBFC054641F28837306A8007EB
:1019400008D4FEF7D3FC401BB842F7D9032002B0FD
:10195000BDE8F081B8F1000F3FF59FAEF06920F0CF
:101960008050F06199E600BF40F48020306030681C
:1019700040F480301CE000BF20F4803030603068DC
:1019800020F480203060FEF7B1FC0546306880030B
:101990007FF55EAEFEF7AAFC401B64284FF0030003
:1019A000F4D940E720F480303060306820F48020A3
:1019B0003060FEF79BFC0546306880033FF548AE7B
:1019C000FEF794FC401B6428F6D9032002B0BDE862
:1019D000F08100BF206AB0F5803F05D17168A26830
:1019E00021F40031114371607168626A21F474114D
:1019F00011430843706001203866FEF777FC044607
:101A0000306880013FF565AFFEF770FC001B0228CF
:101A10004FF00300F4D906E7411E0020B0EB116F30
:101A20001CBF012070474EF21002CEF2000251603E
:101A30004EF62351CEF20001F0230B700721906087
:101A400011607047FEE7000082B041F21800C4F256
:101A50000200016841F020010160016801F02001ED
:101A600001910199016841F004010160006800F0F2
:101A700004000090009802B07047000080B540F26A
:101A8000E03040F26001C2F20000C2F20001002228
:101A900000F0E4FA002818BFFEF70EFC40F2E03038
:101AA00040F29401C2F20000C2F2000100F0F8FC22
:101AB000002818BFFEF700FC40F2E030C2F2000040
:101AC00000F004FD002808BF80BDBDE88040FEF79F
:101AD000F3BB0000FEE70000FEE7000070470000D7
:101AE00070470000FEF708BC7047000080B5D0F8D2
:101AF000B42252689047002080BD000080B5134694
:101B00000A46002100F0E8FB002080BD80B51346A6
:101B10000A46002100F0A6FC002080BD10B58021FF
:101B2000044600F071FC20460021BDE8104000F0A2
:101B30006BBC000080B50521C0F894120021002282
:101B4000002300F0C9FB002080BD000080B51346D3
:101B50000A460221C0F894120021C0E9073300F0C0
:101B600081FC002080BD000080B50421C0F89412E3
:101B700000210022002300F075FC002080BD000041
:101B800010B540F2CC14C2F200040A4602A021466D
:101B900000F012F9204610BD48494420436F6E669C
:101BA0006967000040F280001222C2F200000A8041
:101BB0007047000010B540F2CC14C2F200040A468F
:101BC00002A0214600F0F8F8204610BD4849442004
:101BD000496E7465726661636500000040F24410EE
:101BE0000422C2F200000A807047000010B540F2E3
:101BF000CC14C2F200040A4602A0214600F0DCF830
:101C0000204610BD53544D6963726F656C656374F3
:101C1000726F6E696373000010B540F2CC14C2F2AB
:101C200000040A4602A0214600F0C6F8204610BD76
:101C300053544D33322048756D616E20696E746562
:101C400072666163650000004FF2E870C1F6FF70D4
:101C5000026883684FF01A0C9B18A1F800C000F0CE
:101C6000A680B0B54FF0370C1A0F0CEB137140681B
:101C7000B3F1204F38BF02F1300140F24812C2F2F6
:101C80000002917019014FF0000E0CEB117582F8F3
:101C900003E0C3F30364B1F1204F38BF04F1300512
:101CA000190215710CEB117582F805E0C3F30354AA
:101CB000B1F1204F38BF04F13005190395710CEBD9
:101CC000117582F807E0C3F30344B1F1204F38BF28
:101CD00004F13005190415720CEB117582F809E056
:101CE000C3F30334B1F1204F38BF04F130051905B7
:101CF00095720CEB117582F80BE0C3F30324B1F17C
:101D0000204F38BF04F1300519061573C3F30314CF
:101D10000CEB1175B1F1204F4FEA037103F00F0383
:101D200082F80DE038BF04F1300503F137049573F4
:101D300082F80FE0B1F1204F38BF03F13004010FFA
:101D40000CEB1073147482F811E0B0F1204F38BF1F
:101D500001F1300301010CEB1174937482F813E06C
:101D6000C0F30363B1F1204F38BF03F13004010227
:101D70001475C0F303530CEB1174B1F1204F4FEA0B
:101D8000003182F815E038BF03F130040CEB117319
:101D9000947582F817E0C0F30340B1F1204F38BFCB
:101DA00000F13003137682F819E0BDE8B04040F24C
:101DB0004810C2F200007047002808BF704710B5F5
:101DC0000378ABB100F1020E4FF0000C1EF8013C9D
:101DD00093B19EF800309BB19EF80130A3B19EF8FC
:101DE00002300CF1040C002B0EF1040EEED10DE0CC
:101DF0004FF0000C0AE000BF4CF0010C06E000BF01
:101E00004CF0020C02E000BF4CF0030C5FFA8CFCBB
:101E1000022303EB4C03138003220B704A7090F8EB
:101E200000E0BEF1000F2DD0023002224FF0000C76
:101E3000D3B2CC1801F803E084F801C010F8013CDB
:101E400003B3941CE4B201EB040E0B558EF801C0F1
:101E50000378BBB1141DE4B201EB040E0B558EF8F0
:101E600001C0437873B1941DE4B201EB040E0B552D
:101E70008EF801C090F802E00832BEF1000F00F1C8
:101E80000400D5D1BDE8104070470000D0F8B8126A
:101E9000002200200A737047B0B58121044600F08B
:101EA00007F9D4F8B8020025E56218B100F050FD3A
:101EB000C4F8B8520020B0BD014640F214100A2206
:101EC000C2F200000A807047014640F2CC00222294
:101ED000C2F200000A807047014640F2F000222260
:101EE000C2F200000A807047014640F22010222210
:101EF000C2F200000A80704710B58121032204233A
:101F0000044600F0D5F90120E062102000F022FD27
:101F10000028C4F8B8020FBF022001460020087351
:101F200010BD000090F89C32032B05D194460A4660
:101F3000D0F8B8120B7B0BB10020704780B501239D
:101F40000B738121634600F08DFABDE880400020CC
:101F50007047000080B582B00B78D0F8B8C200227C
:101F600013F06003ADF8062012D0202B40F0628001
:101F70004A78931E092B00F25D80DFE803F0052FFD
:101F80005B5B5B5B5B5B214B0CF1040127E000BFFB
:101F90004B780B2B4ED8DFE803F0074D4D4D4D4DE0
:101FA000294D4D4D194300BF90F89C22032A41D181
:101FB0000DF106010222FFF7C9FD002002B080BD2D
:101FC000C878CCF80400002002B080BD90F89C22B4
:101FD000032A2FD10CF1080101E000BF6146012264
:101FE000FFF7B4FD002002B080BD00BFCA78212AEF
:101FF00026D0222A1ED1CA8840F20801C2F200016E
:102000004A2A28BF4A220C31FFF7A0FD002002B067
:1020100080BD00BF8878CCF80000002002B080BDF1
:1020200090F89C22032A05D18878CCF8080000207B
:1020300002B080BDFFF772FD022002B080BD00BF7C
:10204000CA8840F20801C2F20001092A28BF092209
:10205000FFF77CFD002002B080BD0000002804BF17
:1020600002207047D0F8B432002B1CBF0023C0F808
:10207000B432002918BFC0F8B01280B5012180F831
:102080009C12027000F0CAF8002080BD80B5D0F824
:10209000C002FEF74DFA40F200220223C100C0F256
:1020A0000122042838BF22FA01F3D8B280BD000013
:1020B00080B5D0F8C002FEF713FA40F200220223E6
:1020C000C100C0F20122042838BF22FA01F3D8B2BD
:1020D00080BD0000B0B569B1D0F8B42252693AB100
:1020E00090F89C32032B03D1904700210846B0BDE5
:1020F0000220B0BDD0F89412002918BF04290FD1D6
:102100008021044600F080F9204690F8A0120129B1
:102110004FF00001EAD180F8A0120846B0BD00BF20
:102120000229F2D1D0E908318B420FD9591A8BB26A
:10213000016211461A460446FFF7E8FC20460021DA
:102140000022002300F0C8F8DEE700BFC2698A421F
:1021500012D3B2FBF1F303FB112169B9D0F8981245
:102160008A4209D20021002204460025FFF7CEFC56
:10217000C4F89852E2E700BFD0F8B412C96831B190
:1021800090F89C22032A02D10446884720468021E9
:10219000044600F039F92046FFF7CCFCB4E7000014
:1021A00010B559B1D0F8B42292692AB190F89C3296
:1021B000032B01D190472EE0022010BDD0F89412DD
:1021C0000024052912D0032926D1D0E958318B42A9
:1021D00014D95B1AC0F860318B4238BF19468BB2F4
:1021E00011461A46FFF78AFC15E000BF0021C0F82F
:1021F000944200F009F9204610BD00BFD0F8B41297
:10220000096931B190F89C22032A02D1044688471B
:102210002046FFF7A9FC0024204610BD10B5044657
:1022200040F2A46045F60041C2F20000C4F2000191
:10223000016008210171022181710021C0F8D4429E
:10224000C4F8C00241810173FEF7DCFE002818BF0C
:10225000FEF732F8D4F8C002002100221823FEF75E
:1022600001F9D4F8C002802100225823FEF7FAF8C1
:10227000D4F8C002812100224FF48073FEF7F2F8F7
:10228000002010BDD0F8C00201F07F034AB203EB7A
:10229000830301EB810100EBC30300EBC10000F5F8
:1022A000A970002A48BF03F11200007870470000AF
:1022B00080B59446D0F8C0021A466346FEF76AF924
:1022C00040F200220223C100C0F20122042838BFDC
:1022D00022FA01F3D8B280BD80B5D0F8C002FEF773
:1022E00087F940F200220223C100C0F20122042833
:1022F00038BF22FA01F3D8B280BD0000F0B581B03A
:10230000002100224023044600254026FFF7D0FF8D
:1023100001272046802100224023C4F85871C4F8C8
:102320006461FFF7C5FFD4F8B812A761666284F84C
:102330009C72C4F894526560C4F8A45229B1D4F8D0
:10234000B41220464A6800219047002001B0F0BD39
:1023500090F89C12042904BF90F89D1280F89C12FA
:102360000020704790F89C12032907D1D0F8B412CE
:10237000C96919B180B58847BDE880400020704721
:10238000024600201174704780B5D0F8C002FEF7F5
:1023900099FF40F200220223C100C0F2012204286A
:1023A00038BF22FA01F3D8B280BD0000B0B500F505
:1023B0002A740546204600F067F895F8A8122846CA
:1023C000B5F8AE5201F01F020123022AC0E9A5357B
:1023D0000ED0012A06D08AB9214600F07DF80020EF
:1023E000B0BD00BF214600F083FA0020B0BD00BFA1
:1023F000214600F0E5F90020B0BD00BF01F08001EA
:1024000000F002F80020B0BD80B5D0F8C002FEF7A1
:1024100009F940F200220223C100C0F2012204287F
:1024200038BF22FA01F3D8B280BD000080B5D0F8E1
:10243000C002FEF763FF40F200220223C100C0F297
:102440000122042838BF22FA01F3D8B280BD00006F
:10245000014690F89C02042281F89D02002081F838
:102460009C22704780B5D0F8C002FEF711F940F207
:1024700000220223C100C0F20122042838BF22FA40
:1024800001F3D8B280BD00000A7802704A78427029
:102490004A8842808A888280C988C180704700004B
:1024A00000290EBF0220C0F8B412002070470000BF
:1024B000D0F8B422002A04BF0220704780B5126809
:1024C0009047002818BF0120400080BD80B5FFF76D
:1024D000ADFF002080BD000070B582B00A7812F018
:1024E00060020BD0402A02D0202A40F05D81D0F853
:1024F000B42292689047002002B070BD4A78092A41
:1025000000F25281DFE812F00A00340050015A0054
:10251000500166008A0050012400400090F89C227F
:10252000013A022A00F24081C988022940F03C8128
:10253000D0F8A4120322002908BF0122014641F865
:102540000C2F0222FFF702FB002002B070BD00BF7B
:10255000C988012940F0288190F89C124A1E022A5D
:1025600080F074800022014641F8082F72E000BF1D
:1025700090F89C22013A022A00F21681498801292A
:10258000B9D100211EE000BF4A8840F2C816D1B27E
:10259000C2F200060229327080F0068190F89C2277
:1025A000032A5DD0022A40F08380002900F0C58014
:1025B00003220446416080F89C22B7E04988012943
:1025C00099D10121C0F8A412FFF7CEFA002002B081
:1025D00070BD00BF8A88002A40F0E680CA88002AC1
:1025E00040F0E2804D887F2D00F2DE8090F89C1252
:1025F000032900F0D980E9B280F89E520446FFF723
:10260000C3FE20462646FFF7AFFA002D0CBF01207F
:10261000022086F89C02002002B070BD4A884FF06C
:10262000FF3303EB12230026062BADF8066000F201
:10263000BB80DFE803F0052D1FB9B94D590000BF7D
:102640000D46D0F8B0120A6891E000BF032940F0AF
:10265000AB80011D0122FFF779FA002002B070BDA6
:10266000002951D04168012958D1FFF77DFA002097
:1026700002B070BDD2B2052A00F29680DFE802F007
:10268000046E666A627200BFD0F8B02252686CE0D5
:102690000D46017C0446D0F8B40200290CBF816AC3
:1026A000C16A0DF1060088470146022029E000BFFB
:1026B00080210446FFF7A8FE20460021FFF7A4FE74
:1026C00031782046FFF712FA002002B070BD00BF3B
:1026D000027C002A68D10446D0F8B4020D46416B52
:1026E0000DF10600884747E0027C002A5CD10446D1
:1026F000D0F8B4020D46016B0DF106008847014683
:102700000720487039E000BF022280F89C22002296
:1027100042600446FFF7EAF90EE000BFC9B2054681
:10272000FFF7E4F931782C4669602846FFF7C0FED0
:10273000022801D1204638E02046FFF715FA002094
:1027400002B070BDD0F8B02252690EE0D0F8B022CD
:10275000D2680AE0D0F8B022126906E0D0F8B022C0
:10276000926802E0D0F8B0229269EAB10D460446C0
:10277000007C0DF1060190470146BDF8060048B106
:10278000EA883AB1904238BF02462046ADF80620AA
:10279000FFF7DCF9E88800287FF4ADAE2046FFF7AC
:1027A000E3F9002002B070BD04468021FFF72CFE43
:1027B00020460021FFF728FE002002B070BD000077
:1027C000B0B50A7812F060020AD0402A01D0202A5F
:1027D00039D1D0F8B422926890470020B0BD00BF34
:1027E0004B780A4609792BB3012B11D0032B2AD140
:1027F00090F89C32032B0FD15388C3BB11F07F0399
:1028000035D0D2889ABB0446FFF7FEFD2EE000BF0C
:1028100090F89C32032B21D0022B14D14A0612D0FF
:102820000446FFF7F1FD20468021FFF7EDFD002073
:10283000B0BD00BF90F89C22032A1DD0022A08BF19
:102840005FEA416240D080210446FFF7DDFD20466B
:102850000021FFF7D9FD0020B0BD00BF5288002A3B
:1028600044D14A0603D00446FFF710FC2046FFF788
:102870007BF90020B0BD00BF01F00F0202EB820225
:10288000802900EB82022CBF9269D2F85821002ADD
:10289000D9D001F07F0202EB820200EB820202F14A
:1028A000140401EB810200EB8202802938BF02F59B
:1028B000AA744A0614D00546FFF7E4FC01462846F0
:1028C000002918BF01210CE009064FF014024FF057
:1028D000000358BF4FF4AA728118835003E000BF71
:1028E0000021216021460222FFF730F90020B0BD0F
:1028F000B0B50A7812F0600218BF402A16D190F8DD
:102900009C22013A022A13D88A8812F0FE0F0FD1B6
:10291000D0F8B422044692680D469047E988002911
:1029200008BF00280ED00020B0BD00BF202AE6D08E
:1029300080210446FFF768FD20460021FFF764FD73
:102940000020B0BD2046FFF70FF90020B0BD000009
:102950007047000040F2CC30C2F200007047000027
:102960002DE9F04191F800E00246CD7830F82E00D4
:1029700047F270674FEA4E03032D20EA070411D88F
:102980000020DFE805F00307100B00BF44F40074DB
:1029900009E000BF44F4806405E000BF44F4C06473
:1029A00001E000BF012048F28007CFF6FF7744EA3C
:1029B000070622F8136032F8136040F60F742640C1
:1029C00046EA0E06374322F813700F7B48F2800C5C
:1029D000002F51D032F8134040F60F66344048F2D1
:1029E0008006022D08BF06F58076344322F8134096
:1029F000B2F850400E8902EB0E173C4426F0010657
:102A0000A4F80064B2F850604C89374424F0010601
:102A1000A7F808644F7832F81310002F56D04904F5
:102A200009D532F8131040F60F773940614401F5AB
:102A3000804122F8131032F81310490608D532F8F5
:102A4000131040F60F7739406144403122F81310DB
:102A500032F8131040F63F7739400CF120074F4011
:102A6000012D08BF41EA0C0722F8137032F8131049
:102A700043F60F7751E000BF4F78B2F85080CC8812
:102A80004FEA0E16002F24F001074DD09119414452
:102A9000A1F8007432F81310490608D532F8131063
:102AA00040F60F7739406144403122F8131032F874
:102AB000131040F63F77012D01EA07012ED00CF1EB
:102AC0002007794022F81310BDE8F081490409D5A8
:102AD00032F8131040F60F773940614401F5804118
:102AE00022F8131032F81310490608D532F81310E3
:102AF00040F60F7739406144403122F8131032F824
:102B0000131043F60F7739400CF54057794022F8FF
:102B1000131032F8131040F63F77394041EA0C01A8
:102B200022F81310BDE8F081951905EB0804A4F80C
:102B30000874B2F8504005F20C452E5B6FF39F26E7
:102B40002E5309693F290BD3CF06675B4FEA511615
:102B50004FF0FF3808BF08EB511647EA86210EE018
:102B600061B101F001062F5B06EB510147EA8121BB
:102B7000295332F8131049040BD414E0295B48F2AE
:102B80000006CFF6FF763143295332F8131049047B
:102B900009D532F8131040F60F742140614401F555
:102BA000804122F81310BEF1000F0BD032F8131041
:102BB00043F60F7739400CF50057794022F813108F
:102BC000BDE8F081118843F60F7739400CF5405786
:102BD000794022F81310BDE8F08100000020704712
:102BE000B0B50C784B78097B024630F824004CF2E3
:102BF000800C4CF2800500294FEA44013AD0002BAA
:102C000042D0400408D532F8110040F60F73184046
:102C100040EA0C0022F8110032F8110043F60F7E52
:102C2000400640F63F7009D532F8113040F60F7477
:102C300023406344A3F57F5322F8113032F811305A
:102C400040F60F7423402B43ACF5804522F8113039
:102C500032F811301840284322F8110032F81100E0
:102C600000EA0E006044A0F58043002022F81130F5
:102C7000B0BD00BFF3B1400640F63F7EEED5ACF5E7
:102C80007F5540F60F70E3E7400408D532F8110095
:102C900040F60F73184040EA0C0022F8110032F899
:102CA0001100ACF57F55400640F63F7E43F60F70AD
:102CB000BAD4C3E7400443F60F7ECFD540F60F7079
:102CC000C6E7000000207047002070470146012041
:102CD000A1F8400000220020A1F84020A1F84420E3
:102CE000A1F850207047000080B582B04FF4C84072
:102CF000019040F2E030C2F2000001A90422FFF787
:102D000011F902B080BD00000146B0F8400044F265
:102D1000FF0202400020A1F84020704700207047C9
:102D20000A7B0AB10020704780B50A784B7830F8EA
:102D300022C04FEA4202ABB15FEA4C6348F2A00EF8
:102D400009D530F812C040F60F7303EA0C03734440
:102D5000203320F81230C97801291BD040F63F718A
:102D600011E000BF5FEA4C414BF2800E09D530F80C
:102D7000121040F60F731940714401F5805120F88C
:102D8000121043F60F7130F81230194081EA0E012B
:102D900020F81210BDE880400020704702460B78F2
:102DA000487832F823C040F63F71002848F290007E
:102DB00008BF43F60F71CFF6FF7008BF00F57F60C4
:102DC00001EA0C014140002022F823107047000066
:102DD0002DE9F04F82B04F78012F5BD18B690A69E2
:102DE0000F7B934228BF1346002F7BD0CF780C6A0D
:102DF000022F40F0C1800D7840F60F6630F8257044
:102E00004FEA450E944206EA070648F2B00C40F23B
:102E1000218147F65077F61BD036A4EB030A20F841
:102E20001E60C1F820A030F81E60B0F850702D016F
:102E300076069EB200EB050800F1608108EB0704FE
:102E4000A4F80434D1F814B0002E00F007830D89E3
:102E5000013600EB450505F580694FF0FF3505EBC0
:102E60005604C6F34105002D4FEA560700F0E081F5
:102E70005E46CDE9004836F8028B5C46CB46012D14
:102E80002BF8048B40F0D881DDF80480013FD9464F
:102E9000A346D0E20A7B002A48D0CA78012A00F073
:102EA000A180022A40F0C6800A78002F40F0638299
:102EB000B0F850701301074407F20446F75A6FF355
:102EC0009F27F7520F693F2FC0F05681FC064FEA4B
:102ED00057159C5B4FF0FF3C08BF0CEB571544EABD
:102EE00085251AE21A0400F07B81CA88D1F814E023
:102EF00000EB420202F580689AB201324FF0FF37D0
:102F0000C2F3410407EB520C002C4FEA520200F0CE
:102F10005481774637F8025B4646012C26F8045B5D
:102F200040F01881013ABE46B04646E18E690B6911
:102F3000F21A38BF00228A61B0F850700A7807444C
:102F40004FEA021107F20C477D5A38BF33466FF340
:102F50009F253F2B7D5271D3DC06CC5B4FEA531685
:102F60004FF0FF3508BF05EB531644EA862343F4C0
:102F70000043CB5348E200BFE21A0F780A6230F8F0
:102F80002720B0F850403D01520605444FEA470E55
:102F90009AB248F2B00C2C4400F18C80002AA4F8BC
:102FA000043400F00F830B890132496900EB4303BD
:102FB0004FF0FF34C2F3410503F5806304EB520880
:102FC000002D4FEA520200F058810E4636F8024BAF
:102FD0001F46012D27F8044B40F01281013A31467B
:102FE0003B464AE18A690B69D61A3CBF0026134664
:102FF0000A78002F8E6140F00782B0F850701101FE
:10300000074407F204456F5A3F2B6FF39F274FEA9F
:1030100053164FEAC36C6F52C0F0BA8037464C5B10
:103020004FF0FF3EBCF1000F08BF0EEB531744EA10
:103030008727BCE1012002B0BDE8F08F002B00F033
:10304000958003F001067D5A06EB530345EA83237E
:103050007B52D9E147F65072B21A303A20F81E205E
:10306000B0F8502000EB05131A442304A2F80444DE
:1030700000F0A8820A89496900EB420202F58063E8
:10308000A2B201324FF0FF34C2F3410504EB520803
:10309000002D4FEA520200F00C810E4636F8024B2A
:1030A0001F46012D27F8044B40F0B280013A31460B
:1030B0003B46FEE0002AA4F80C3400F083824B89E2
:1030C0000132496900EB43034FF0FF34C2F341057D
:1030D00003F5806304EB5208002D4FEA520200F022
:1030E00004810E4636F8024B1F46012D27F8044B8B
:1030F00040F09680013A31463B46F6E008EB070582
:10310000A5F80C34D1F814B0002E00F0FF814D89E1
:10311000013600EB450505F580694FF0FF3505EBFD
:103120005604C6F34105002D4FEA560700F0828091
:103130005E46CDE9004836F8028B5C46CB46012D51
:103140002BF8048B40F08680DDF80480013FD946DF
:10315000A346C8E1BEF80250022CA8F8045023D1BF
:1031600008F108080EF1040E023A26E07B5A43F4F7
:1031700000437B5248E100BF002F00F0CD8007F0F4
:103180000105F45A05EB570544EA8525CAE000BF5E
:10319000002B00F00B8103F001076C5A07EB53077B
:1031A00044EA872408E100BFBEF804400EF1060E91
:1031B000A8F8084008F10C08033ABCF1030F0FD33C
:1031C000AEF10807A8F1100637F8085F043A26F8B0
:1031D000105F7D88B580BD883581FD88B581F3D1CC
:1031E000B0F850200978024402EB011248F2B00C0A
:1031F000A2F804344FEA410E40F63F71E4E100BF0B
:103200004C88022D9C8033D108330431023A34E0DB
:103210004C88022D9C8047D108330431023A48E0A3
:103220004C88022D9C805BD108330431023A5CE06B
:103230005E4601E15E4657E16688022DA346A9F885
:10324000046040F0ED8009F108090BF10406023F2B
:10325000EFE000BF6688022DA346A9F8046040F0A5
:10326000378109F108090BF10406023F39E100BF7B
:103270008C8806311C810C33033AB8F1030FC0F07F
:10328000A181A1F10804103B34F8081F043A23F887
:10329000101F61889980A1881981E188998140F681
:1032A0003F71F1D190E100BF8C8806311C810C3355
:1032B000033AB8F1030FC0F08581A1F10804103B77
:1032C00034F8081F043A23F8101F61889980A188F8
:1032D0001981E188998140F63F71F1D174E100BF15
:1032E0008C8806311C810C33033AB8F1030FC0F00F
:1032F0006981A1F10804103B34F8081F043A23F84F
:10330000101F61889980A1881981E188998140F610
:103310003F71F1D158E100BFF55A48F20004CFF6F1
:10332000FF742543F552B0F850603F2F064406F273
:103330000C46F55A6FF39F25F5520BD3FC069C5BA8
:103340004FEA57154FF0FF3C08BF0CEB571544EA06
:1033500085270AE047B107F00105F45A05EB570746
:1033600044EA872706E000BFF75A48F20005CFF687
:10337000FF752F43F752C969002945D030F8221054
:1033800044F240031940994201D000293CD1510038
:1033900030F8113040F60F773B4048F2B007CFF6D7
:1033A000FF773B43103320F811302DE06F5A48F27D
:1033B0000004CFF6FF743C436C52B0F850703F2BC2
:1033C000074407F20C456F5A6FF39F276F520DD3D6
:1033D0004C5B4FF0FF37BCF1000F08BF07EB5316F3
:1033E00044EA862343F400434B530DE043B103F01A
:1033F00001076E5A07EB530346EA832303E000BF3D
:103400006B5A43F400436B5242F6D071A1F5E04190
:103410004FEA420EA1F5756C43F60F71D4E000BF80
:10342000BBF804500BF10606A9F8085009F10C0985
:10343000033FDDF80480009C032C0FD3083EA9F164
:10344000100500BF36F8084F043F25F8104F748868
:10345000AC80B4882C81F488AC81F3D10BEB0306EB
:1034600000244E61924588BFAAEB03040C62B0F8B9
:10347000502088BF9A4608EB02031FFA8AF2002AFE
:10348000A3F80CA400F09E804989013200EB4101B1
:103490004FF0FF33C2F3410401F5806103EB5208A2
:1034A000002C4FEA52026ED0354635F8023B0F46EB
:1034B000012C27F8043B03D1013A2E46394662E03D
:1034C0007388022C8B8059D108310436023A5AE0B5
:1034D000BBF804500BF10606A9F8085009F10C09D5
:1034E000033FDDF80480009C032C0FD3083EA9F1B4
:1034F000100500BF36F8084F043F25F8104F7488B8
:10350000AC80B4882C81F488AC81F3D10BEB03063A
:1035100000244E61924588BFAAEB03040C62B0F808
:10352000502088BF9A4608EB02031FFA8AF2002A4D
:10353000A3F804A446D00989013200EB41014FF001
:10354000FF33C2F3410401F5806103EB52084FEAF7
:103550005202A4B3354635F8023B0F46012C27F83A
:10356000043B03D1013A2E46394628E07388022CE9
:103570008B801FD108310436023A20E0B38806362A
:103580000B810C31033AB8F1030F1BD3A6F10803EA
:10359000A1F1100433F8081F043A24F8101F5988C9
:1035A000A18099882181D988A18140F63F71F1D10C
:1035B0000AE000BFB38806360B810C31033AB8F13C
:1035C000030F0DD240F63F7130F81E20114081EA02
:1035D0000C0120F81E10002002B0BDE8F08F00BFE3
:1035E000A6F10803A1F1100433F8081F043A24F8E7
:1035F000101F5988A18099882181D988A18140F61E
:103600003F71F1D1E0E70000014600204FF43F4256
:10361000A1F84400A1F840207047000040F2A460E7
:10362000C2F20000FDF750B8B0F844007047000047
:1036300070B500EB4200022B00F5806402D22046F8
:103640000A464AE04FF0FF30C3F341054FEA530CFE
:1036500000EB530E75B1204630F8046B0A46012D7D
:1036600022F8026B0CD1ACF1010C1146BEF1030F34
:103670001FD232E02046BEF1030F1AD22DE000BF68
:10368000A088022D488009D10A1D04F10800ACF180
:10369000020C1146BEF1030F0BD21EE020898A1DD9
:1036A000888004F10C00ACF1030C1146BEF1030F4D
:1036B00013D30A4630F8101BBCF1040C22F8081B87
:1036C00030F80C1C22F8061C30F8081C22F8041CE8
:1036D00030F8041C22F8021CECD1D9071CBF00886A
:1036E000107070BD00207047002904BF8021A0F831
:1036F0004C10002070470000002B08BF7047B0B589
:1037000000EB420000F5806E581C4FF0FF32C0F312
:10371000410302EB500C4FEA5000C3B10A4632F8A5
:10372000025B7446012B24F8045B07D10138114673
:10373000A646BCF1030F0DD21CE000BF4A88022B45
:10374000AEF804201AD10EF1080E04310238BCF193
:10375000030F0FD30839AEF1100200BF31F8083F54
:10376000043822F8103F4B8893808B881381CB88D4
:103770009381F3D1BDE8B040704700BF8A8806311D
:10378000AEF808200EF10C0E0338BCF1030FE1D2A5
:10379000F0E70000FEE7000094B0FCF7BBFD00245A
:1037A0000120CDE90F44CDE90D440A900E904FF46D
:1037B000E0104FF48031022513900AA8CDE90244AD
:1037C000CDE90B14CDE91151FDF726FF20B1EFF340
:1037D000108072B6FEE700BF0F20CDE905054FF45B
:1037E0008060CDE9080405A802210794FDF736FEA4
:1037F00020B1EFF3108072B6FEE700BF10200190F9
:103800000020049001A8FDF7A7FD28B1EFF3108078
:1038100072B600BFFEE700BFFEF716F9FEF72EF9FD
:10382000FFF762FA6420FCF74DFDF9E700000000A5
:103830000000000001020304060708090102020358
:103840000405060708090A0B0C0D0E0F10100000E6
:1038500070380008000000206801000050010008D6
:103860004839000868010020180E0000B001000867
:103870003201321015092111014401224A100A05B2
:10388000010902A1010901A1100805091901290373
:1038900015180F25019503750181029501750581A4
:1038A0000120281730093109381581257F750895C1
:1038B000038106C0093C05FF090129200E75019509
:1038C00002B12275069501B101C013A51B1B08DDCD
:1038D000041AED0413191C1B0849041A810C1AB5AB
:1038E000041113127A1312013202164083042B576B
:1038F0001D020102039113F91E1B0899041B551F99
:1039000024711A8D1001101AD9141AC9041AE90465
:103910001AB9041409022213010125E03209048DA9
:1039200001030102D61607058103041A0AE8091EDD
:103930002422074B0A0694198B0920301954071EBC
:08394000040309041A0300004E
:04000005080000ED02
:00000001FF
